{
  "contractName": "AddressRepository",
  "abi": [
    {
      "anonymous": false,
      "inputs": [
        {
          "indexed": true,
          "internalType": "address",
          "name": "previousOwner",
          "type": "address"
        },
        {
          "indexed": true,
          "internalType": "address",
          "name": "newOwner",
          "type": "address"
        }
      ],
      "name": "OwnershipTransferred",
      "type": "event"
    },
    {
      "inputs": [
        {
          "internalType": "bytes32",
          "name": "key",
          "type": "bytes32"
        }
      ],
      "name": "getAddress",
      "outputs": [
        {
          "internalType": "address",
          "name": "",
          "type": "address"
        }
      ],
      "stateMutability": "view",
      "type": "function"
    },
    {
      "inputs": [],
      "name": "owner",
      "outputs": [
        {
          "internalType": "address",
          "name": "",
          "type": "address"
        }
      ],
      "stateMutability": "view",
      "type": "function"
    },
    {
      "inputs": [],
      "name": "renounceOwnership",
      "outputs": [],
      "stateMutability": "nonpayable",
      "type": "function"
    },
    {
      "inputs": [
        {
          "internalType": "address",
          "name": "newOwner",
          "type": "address"
        }
      ],
      "name": "transferOwnership",
      "outputs": [],
      "stateMutability": "nonpayable",
      "type": "function"
    },
    {
      "inputs": [],
      "name": "getPoolService",
      "outputs": [
        {
          "internalType": "address",
          "name": "",
          "type": "address"
        }
      ],
      "stateMutability": "view",
      "type": "function"
    },
    {
      "inputs": [
        {
          "internalType": "address",
          "name": "_address",
          "type": "address"
        }
      ],
      "name": "setPoolService",
      "outputs": [],
      "stateMutability": "nonpayable",
      "type": "function"
    },
    {
      "inputs": [],
      "name": "getPlanetRepository",
      "outputs": [
        {
          "internalType": "address",
          "name": "",
          "type": "address"
        }
      ],
      "stateMutability": "view",
      "type": "function"
    },
    {
      "inputs": [
        {
          "internalType": "address",
          "name": "_address",
          "type": "address"
        }
      ],
      "name": "setPlanetRepository",
      "outputs": [],
      "stateMutability": "nonpayable",
      "type": "function"
    },
    {
      "inputs": [],
      "name": "getStarshipRepository",
      "outputs": [
        {
          "internalType": "address",
          "name": "",
          "type": "address"
        }
      ],
      "stateMutability": "view",
      "type": "function"
    },
    {
      "inputs": [
        {
          "internalType": "address",
          "name": "_address",
          "type": "address"
        }
      ],
      "name": "setStarshipRepository",
      "outputs": [],
      "stateMutability": "nonpayable",
      "type": "function"
    },
    {
      "inputs": [],
      "name": "getGoldToken",
      "outputs": [
        {
          "internalType": "address",
          "name": "",
          "type": "address"
        }
      ],
      "stateMutability": "view",
      "type": "function"
    },
    {
      "inputs": [
        {
          "internalType": "address",
          "name": "_address",
          "type": "address"
        }
      ],
      "name": "setGoldToken",
      "outputs": [],
      "stateMutability": "nonpayable",
      "type": "function"
    },
    {
      "inputs": [],
      "name": "getIronToken",
      "outputs": [
        {
          "internalType": "address",
          "name": "",
          "type": "address"
        }
      ],
      "stateMutability": "view",
      "type": "function"
    },
    {
      "inputs": [
        {
          "internalType": "address",
          "name": "_address",
          "type": "address"
        }
      ],
      "name": "setIronToken",
      "outputs": [],
      "stateMutability": "nonpayable",
      "type": "function"
    },
    {
      "inputs": [],
      "name": "getOilToken",
      "outputs": [
        {
          "internalType": "address",
          "name": "",
          "type": "address"
        }
      ],
      "stateMutability": "view",
      "type": "function"
    },
    {
      "inputs": [
        {
          "internalType": "address",
          "name": "_address",
          "type": "address"
        }
      ],
      "name": "setOilToken",
      "outputs": [],
      "stateMutability": "nonpayable",
      "type": "function"
    }
  ],
  "bytecode": "0x608060405234801561001057600080fd5b5060006100216100c460201b60201c565b9050806000806101000a81548173ffffffffffffffffffffffffffffffffffffffff021916908373ffffffffffffffffffffffffffffffffffffffff1602179055508073ffffffffffffffffffffffffffffffffffffffff16600073ffffffffffffffffffffffffffffffffffffffff167f8be0079c531659141344cd1fd0a4f28419497f9722a3daafe3b4186f6b6457e060405160405180910390a3506100cc565b600033905090565b6110ea806100db6000396000f3fe608060405234801561001057600080fd5b50600436106101005760003560e01c8063715018a611610097578063b9778d8011610066578063b9778d80146103af578063d06816a1146103f3578063f1d75fd514610437578063f2fde38b1461046b57610100565b8063715018a6146102f95780638da5cb5b14610303578063a3568d0714610337578063b89537c11461036b57610100565b806335f11a24116100d357806335f11a241461020957806368625aa01461024d5780636b6dcea0146102815780636b9bf08b146102c557610100565b806308fd99ed1461010557806313ca76fc1461013957806315ba25461461016d57806321f8a721146101b1575b600080fd5b61010d6104af565b604051808273ffffffffffffffffffffffffffffffffffffffff16815260200191505060405180910390f35b6101416104df565b604051808273ffffffffffffffffffffffffffffffffffffffff16815260200191505060405180910390f35b6101af6004803603602081101561018357600080fd5b81019080803573ffffffffffffffffffffffffffffffffffffffff16906020019092919050505061050f565b005b6101dd600480360360208110156101c757600080fd5b8101908080359060200190929190505050610604565b604051808273ffffffffffffffffffffffffffffffffffffffff16815260200191505060405180910390f35b61024b6004803603602081101561021f57600080fd5b81019080803573ffffffffffffffffffffffffffffffffffffffff1690602001909291905050506106cc565b005b6102556107c1565b604051808273ffffffffffffffffffffffffffffffffffffffff16815260200191505060405180910390f35b6102c36004803603602081101561029757600080fd5b81019080803573ffffffffffffffffffffffffffffffffffffffff1690602001909291905050506107f1565b005b6102cd6108e6565b604051808273ffffffffffffffffffffffffffffffffffffffff16815260200191505060405180910390f35b610301610916565b005b61030b610a9c565b604051808273ffffffffffffffffffffffffffffffffffffffff16815260200191505060405180910390f35b61033f610ac5565b604051808273ffffffffffffffffffffffffffffffffffffffff16815260200191505060405180910390f35b6103ad6004803603602081101561038157600080fd5b81019080803573ffffffffffffffffffffffffffffffffffffffff169060200190929190505050610af5565b005b6103f1600480360360208110156103c557600080fd5b81019080803573ffffffffffffffffffffffffffffffffffffffff169060200190929190505050610bea565b005b6104356004803603602081101561040957600080fd5b81019080803573ffffffffffffffffffffffffffffffffffffffff169060200190929190505050610cdf565b005b61043f610dd4565b604051808273ffffffffffffffffffffffffffffffffffffffff16815260200191505060405180910390f35b6104ad6004803603602081101561048157600080fd5b81019080803573ffffffffffffffffffffffffffffffffffffffff169060200190929190505050610e04565b005b60006104da7f474f4c445f544f4b454e00000000000000000000000000000000000000000000610604565b905090565b600061050a7f49524f4e5f544f4b454e00000000000000000000000000000000000000000000610604565b905090565b61051761100f565b73ffffffffffffffffffffffffffffffffffffffff1660008054906101000a900473ffffffffffffffffffffffffffffffffffffffff1673ffffffffffffffffffffffffffffffffffffffff16146105d7576040517f08c379a00000000000000000000000000000000000000000000000000000000081526004018080602001828103825260208152602001807f4f776e61626c653a2063616c6c6572206973206e6f7420746865206f776e657281525060200191505060405180910390fd5b6106017f504c414e45545f5245504f5349544f525900000000000000000000000000000082611017565b50565b6000806001600084815260200190815260200160002060009054906101000a900473ffffffffffffffffffffffffffffffffffffffff169050600073ffffffffffffffffffffffffffffffffffffffff168173ffffffffffffffffffffffffffffffffffffffff1614156106c3576040517f08c379a00000000000000000000000000000000000000000000000000000000081526004018080602001828103825260218152602001806110946021913960400191505060405180910390fd5b80915050919050565b6106d461100f565b73ffffffffffffffffffffffffffffffffffffffff1660008054906101000a900473ffffffffffffffffffffffffffffffffffffffff1673ffffffffffffffffffffffffffffffffffffffff1614610794576040517f08c379a00000000000000000000000000000000000000000000000000000000081526004018080602001828103825260208152602001807f4f776e61626c653a2063616c6c6572206973206e6f7420746865206f776e657281525060200191505060405180910390fd5b6107be7f4f494c5f544f4b454e000000000000000000000000000000000000000000000082611017565b50565b60006107ec7f4f494c5f544f4b454e0000000000000000000000000000000000000000000000610604565b905090565b6107f961100f565b73ffffffffffffffffffffffffffffffffffffffff1660008054906101000a900473ffffffffffffffffffffffffffffffffffffffff1673ffffffffffffffffffffffffffffffffffffffff16146108b9576040517f08c379a00000000000000000000000000000000000000000000000000000000081526004018080602001828103825260208152602001807f4f776e61626c653a2063616c6c6572206973206e6f7420746865206f776e657281525060200191505060405180910390fd5b6108e37f49524f4e5f544f4b454e0000000000000000000000000000000000000000000082611017565b50565b60006109117f47414d455f534552564943450000000000000000000000000000000000000000610604565b905090565b61091e61100f565b73ffffffffffffffffffffffffffffffffffffffff1660008054906101000a900473ffffffffffffffffffffffffffffffffffffffff1673ffffffffffffffffffffffffffffffffffffffff16146109de576040517f08c379a00000000000000000000000000000000000000000000000000000000081526004018080602001828103825260208152602001807f4f776e61626c653a2063616c6c6572206973206e6f7420746865206f776e657281525060200191505060405180910390fd5b600073ffffffffffffffffffffffffffffffffffffffff1660008054906101000a900473ffffffffffffffffffffffffffffffffffffffff1673ffffffffffffffffffffffffffffffffffffffff167f8be0079c531659141344cd1fd0a4f28419497f9722a3daafe3b4186f6b6457e060405160405180910390a360008060006101000a81548173ffffffffffffffffffffffffffffffffffffffff021916908373ffffffffffffffffffffffffffffffffffffffff160217905550565b60008060009054906101000a900473ffffffffffffffffffffffffffffffffffffffff16905090565b6000610af07f53544152534849505f5245504f5349544f525900000000000000000000000000610604565b905090565b610afd61100f565b73ffffffffffffffffffffffffffffffffffffffff1660008054906101000a900473ffffffffffffffffffffffffffffffffffffffff1673ffffffffffffffffffffffffffffffffffffffff1614610bbd576040517f08c379a00000000000000000000000000000000000000000000000000000000081526004018080602001828103825260208152602001807f4f776e61626c653a2063616c6c6572206973206e6f7420746865206f776e657281525060200191505060405180910390fd5b610be77f47414d455f53455256494345000000000000000000000000000000000000000082611017565b50565b610bf261100f565b73ffffffffffffffffffffffffffffffffffffffff1660008054906101000a900473ffffffffffffffffffffffffffffffffffffffff1673ffffffffffffffffffffffffffffffffffffffff1614610cb2576040517f08c379a00000000000000000000000000000000000000000000000000000000081526004018080602001828103825260208152602001807f4f776e61626c653a2063616c6c6572206973206e6f7420746865206f776e657281525060200191505060405180910390fd5b610cdc7f53544152534849505f5245504f5349544f52590000000000000000000000000082611017565b50565b610ce761100f565b73ffffffffffffffffffffffffffffffffffffffff1660008054906101000a900473ffffffffffffffffffffffffffffffffffffffff1673ffffffffffffffffffffffffffffffffffffffff1614610da7576040517f08c379a00000000000000000000000000000000000000000000000000000000081526004018080602001828103825260208152602001807f4f776e61626c653a2063616c6c6572206973206e6f7420746865206f776e657281525060200191505060405180910390fd5b610dd17f474f4c445f544f4b454e0000000000000000000000000000000000000000000082611017565b50565b6000610dff7f504c414e45545f5245504f5349544f5259000000000000000000000000000000610604565b905090565b610e0c61100f565b73ffffffffffffffffffffffffffffffffffffffff1660008054906101000a900473ffffffffffffffffffffffffffffffffffffffff1673ffffffffffffffffffffffffffffffffffffffff1614610ecc576040517f08c379a00000000000000000000000000000000000000000000000000000000081526004018080602001828103825260208152602001807f4f776e61626c653a2063616c6c6572206973206e6f7420746865206f776e657281525060200191505060405180910390fd5b600073ffffffffffffffffffffffffffffffffffffffff168173ffffffffffffffffffffffffffffffffffffffff161415610f52576040517f08c379a000000000000000000000000000000000000000000000000000000000815260040180806020018281038252602681526020018061106e6026913960400191505060405180910390fd5b8073ffffffffffffffffffffffffffffffffffffffff1660008054906101000a900473ffffffffffffffffffffffffffffffffffffffff1673ffffffffffffffffffffffffffffffffffffffff167f8be0079c531659141344cd1fd0a4f28419497f9722a3daafe3b4186f6b6457e060405160405180910390a3806000806101000a81548173ffffffffffffffffffffffffffffffffffffffff021916908373ffffffffffffffffffffffffffffffffffffffff16021790555050565b600033905090565b806001600084815260200190815260200160002060006101000a81548173ffffffffffffffffffffffffffffffffffffffff021916908373ffffffffffffffffffffffffffffffffffffffff160217905550505056fe4f776e61626c653a206e6577206f776e657220697320746865207a65726f20616464726573734164647265737353746f726167653a2041646472657373206e6f7420666f756e64a264697066735822122067e0e454ed7255ed405a8c586c2f008a8d97c0e7ceafa5979d944bd6005cd1fd64736f6c634300060c0033",
  "immutableReferences": {},
  "source": "// SPDX-License-Identifier: agpl-3.0\npragma solidity ^0.6.10;\n\nimport \"@openzeppelin/contracts/access/Ownable.sol\";\nimport \"../lib/AddressStorage.sol\";\n\n/**\n * @title AddressRepository\n * @notice Stores addresses of deployed contracts\n * @author Mikhail Lazarev, github.com/MikaelLazarev\n */\ncontract AddressRepository is Ownable, AddressStorage {\n    bytes32 private constant GAME_SERVICE = \"GAME_SERVICE\";\n    bytes32 private constant PLANET_REPOSITORY = \"PLANET_REPOSITORY\";\n    bytes32 private constant STARSHIP_REPOSITORY = \"STARSHIP_REPOSITORY\";\n\n    bytes32 private constant GOLD_TOKEN = \"GOLD_TOKEN\";\n    bytes32 private constant IRON_TOKEN = \"IRON_TOKEN\";\n    bytes32 private constant OIL_TOKEN = \"OIL_TOKEN\";\n\n    /**\n     * @dev returns the address of the LendingPool proxy\n     * @return the lending pool proxy address\n     **/\n    function getPoolService() public view returns (address) {\n        return getAddress(GAME_SERVICE);\n    }\n\n    function setPoolService(address _address) public onlyOwner {\n        _setAddress(GAME_SERVICE, _address);\n    }\n\n    function getPlanetRepository() public view returns (address) {\n        return getAddress(PLANET_REPOSITORY);\n    }\n\n    function setPlanetRepository(address _address) public onlyOwner {\n        _setAddress(PLANET_REPOSITORY, _address);\n    }\n\n    function getStarshipRepository() public view returns (address) {\n        return getAddress(STARSHIP_REPOSITORY);\n    }\n\n    function setStarshipRepository(address _address) public onlyOwner {\n        _setAddress(STARSHIP_REPOSITORY, _address);\n    }\n\n\n    function getGoldToken() public view returns (address) {\n        return getAddress(GOLD_TOKEN);\n    }\n\n    function setGoldToken(address _address) public onlyOwner {\n        _setAddress(GOLD_TOKEN, _address);\n    }\n\n    function getIronToken() public view returns (address) {\n        return getAddress(IRON_TOKEN);\n    }\n\n    function setIronToken(address _address) public onlyOwner {\n        _setAddress(IRON_TOKEN, _address);\n    }\n\n    function getOilToken() public view returns (address) {\n        return getAddress(OIL_TOKEN);\n    }\n\n    function setOilToken(address _address) public onlyOwner {\n        _setAddress(OIL_TOKEN, _address);\n    }\n}\n",
  "sourcePath": "/Users/mikhail/Coding/space-traders/contracts/repository/AddressRepository.sol",
  "compiler": {
    "name": "solc",
    "version": "0.6.12+commit.27d51765.Emscripten.clang"
  },
  "schemaVersion": "3.2.5",
  "updatedAt": "2020-12-16T07:26:50.703Z",
  "devdoc": {
    "author": "Mikhail Lazarev, github.com/MikaelLazarev",
    "kind": "dev",
    "methods": {
      "getPoolService()": {
        "details": "returns the address of the LendingPool proxy",
        "returns": {
          "_0": "the lending pool proxy address*"
        }
      },
      "owner()": {
        "details": "Returns the address of the current owner."
      },
      "renounceOwnership()": {
        "details": "Leaves the contract without owner. It will not be possible to call `onlyOwner` functions anymore. Can only be called by the current owner. NOTE: Renouncing ownership will leave the contract without an owner, thereby removing any functionality that is only available to the owner."
      },
      "transferOwnership(address)": {
        "details": "Transfers ownership of the contract to a new account (`newOwner`). Can only be called by the current owner."
      }
    },
    "title": "AddressRepository",
    "version": 1
  },
  "userdoc": {
    "kind": "user",
    "methods": {},
    "notice": "Stores addresses of deployed contracts",
    "version": 1
  }
}