{
  "contractName": "AddressStorage",
  "abi": [
    {
      "inputs": [
        {
          "internalType": "bytes32",
          "name": "key",
          "type": "bytes32"
        }
      ],
      "name": "getAddress",
      "outputs": [
        {
          "internalType": "address",
          "name": "",
          "type": "address"
        }
      ],
      "stateMutability": "view",
      "type": "function"
    }
  ],
  "bytecode": "0x608060405234801561001057600080fd5b506101a6806100206000396000f3fe608060405234801561001057600080fd5b506004361061002b5760003560e01c806321f8a72114610030575b600080fd5b61005c6004803603602081101561004657600080fd5b8101908080359060200190929190505050610088565b604051808273ffffffffffffffffffffffffffffffffffffffff16815260200191505060405180910390f35b60008060008084815260200190815260200160002060009054906101000a900473ffffffffffffffffffffffffffffffffffffffff169050600073ffffffffffffffffffffffffffffffffffffffff168173ffffffffffffffffffffffffffffffffffffffff161415610146576040517f08c379a00000000000000000000000000000000000000000000000000000000081526004018080602001828103825260218152602001806101506021913960400191505060405180910390fd5b8091505091905056fe4164647265737353746f726167653a2041646472657373206e6f7420666f756e64a26469706673582212201bf49a61bf04b151ed481e9e33cf6a5dada7abe1dd5822057e564374d201a88164736f6c634300060c0033",
  "immutableReferences": {},
  "source": "// SPDX-License-Identifier: agpl-3.0\npragma solidity ^0.6.10;\n\ncontract AddressStorage {\n    mapping(bytes32 => address) private _addresses;\n\n    function getAddress(bytes32 key) public view returns (address) {\n        address result = _addresses[key];\n        require(result != address(0), \"AddressStorage: Address not found\");\n        return result;\n    }\n\n    function _setAddress(bytes32 key, address value) internal {\n        _addresses[key] = value;\n    }\n\n}\n",
  "sourcePath": "/Users/mikhail/Coding/space-traders/contracts/lib/AddressStorage.sol",
  "compiler": {
    "name": "solc",
    "version": "0.6.12+commit.27d51765.Emscripten.clang"
  },
  "schemaVersion": "3.2.5",
  "updatedAt": "2020-12-16T07:26:50.700Z",
  "devdoc": {
    "kind": "dev",
    "methods": {},
    "version": 1
  },
  "userdoc": {
    "kind": "user",
    "methods": {},
    "version": 1
  }
}